:100000000C9452000C946F000C946F000C946F00D1
:100010000C946F000C946F000C946F000C946F00A4
:100020000C946F000C946F000C946F000C946F0094
:100030000C946F000C946F000C9484000C946F006F
:100040000C946F000C946F000C946F000C946F0074
:100050000C946F000C946F000C946F000C946F0064
:100060000C946F000C946F003002490262027B0214
:100070009402AD02C602084AD73B3BCE016E84BC57
:10008000BFFDC12F3D6C74319ABD56833DDA3D00F2
:10009000C77F11BED9E4BB4C3E916BAAAABE00003B
:1000A00000803F0011241FBECFEFD8E0DEBFCDBFE0
:1000B00011E0A0E0B1E0EAE3F5E102C005900D92A5
:1000C000A830B107D9F721E0A8E0B1E001C01D9246
:1000D000AA31B207E1F70E94FF020C949B0A0C942C
:1000E000000084B5826084BDEEE6F0E0808182602D
:1000F000808389EF87BD089585B5836085BD0895A8
:1001000085B58C7F85BD08951F920F920FB60F9213
:1001100011248F939F93809108019091090101967A
:1001200090930901809308019F918F910F900FBECA
:100130000F901F9018954F925F926F927F928F92BF
:100140009F92AF92BF92CF92DF92EF92FF92CF93A6
:10015000DF93EC016B017A01FA0180809180A2802B
:10016000B38081E18C9FB0018D9F700D1124072E0B
:10017000000C880B990B0E9409092B013C01CE0150
:1001800004960997C8F42097D9F0BE010D2E000CF3
:10019000880B990B0E940909A50194010E94BF07D1
:1001A0004B015C0120E030E040EC50E40E94E009AB
:1001B00018160CF46CC060C0812C912C540103C043
:1001C000812C912C5401F70180829182A282B3820A
:1001D00020E030E040E450E4C501B4010E94ED09A4
:1001E0004B015C01209759F0CC19DD09BE01DD0FF0
:1001F000880B990B0E9409096B017C0103C0C12C7B
:10020000D12C7601A5019401C301B2010E94BF0760
:10021000A70196010E94BF076B017C010E94D108D3
:100220006D32F1E07F076CF4643D7E4F0CF041C00D
:100230000F2EC12CD12CF6E9EF2EF3ECFF2EF02D72
:1002400038C00F2EC12CD12CF6E9EF2EF3E4FF2E8F
:10025000F02D2FC080E090E0A0ECB0ECF70180839F
:100260009183A283B3830F2E812C912CF0E9AF2EC2
:10027000F1ECBF2EF02DB8CF20E030E040EC50EC98
:10028000C501B4010E945A08882324F39CCF80E062
:1002900090E0A0ECB0E4F70180839183A283B38364
:1002A0000F2E812C912CF0E9AF2EF1E4BF2EF02D12
:1002B0009BCFC701B6010E94D108CB01DF91CF913E
:1002C000FF90EF90DF90CF90BF90AF909F908F9076
:1002D0007F906F905F904F900895CF93DF93EC01E4
:1002E000992344F484E695E00E94E506D195C195F2
:1002F000D10904C088E196E00E94E5061092090148
:10030000109208010E947C008091080190910901DF
:100310008C179D07C8F30E9480008CED95E00E9429
:10032000E506DF91CF910895CF92DF92EF92FF9291
:100330000F931F93CF93DF9300D000D0CDB7DEB7DC
:100340006C0119821A821B821C82E12CF12C03C0E1
:10035000780101C078010E9463038AE090E00E9466
:1003600034048C010E947303C601801B910B8C0125
:10037000AE014F5F5F4FB7010E949B000E946D016D
:100380000115110529F7EF2829F70F900F900F900D
:100390000F90DF91CF911F910F91FF90EF90DF9021
:1003A000CF9008950F931F93CF93DF938C01EB01B0
:1003B0000E94670784EC90E00E947C07C8010E94BD
:1003C0009607CE010E94A3070E947207DF91CF918A
:1003D0001F910F910895CF93DF93EC010E9467075F
:1003E00084EC90E00E947C07CE010E9496070E9458
:1003F00072070E94670785EC90E00E9489070E94BF
:10040000B007EC010E947207CE01DF91CF910895F1
:10041000CF9364E070E080E090E00E94D20181E040
:1004200090E00E94EB0180FDFACF8FE090E00E9407
:10043000EB01C82F80E190E00E94EB0120E030E06A
:100440003C2F820F931FCF910895CF93DF93873076
:10045000910508F0B9C0FC01EC5CFF4F0C94720AE6
:1004600060E870E082E090E00E94D20168E070E015
:1004700084E090E00E94D20160E070E08CE190E0C6
:100480000E94D20161E070E081E190E00E94D2011F
:100490009BC06DE170E082E090E00E94D20168E0D4
:1004A00070E084E090E00E94D20160E070E08CE1B6
:1004B00090E00E94D20161E070E081E190E00E9452
:1004C000D20182C060E870E082E090E00E94D20138
:1004D00060E070E084E090E00E94D20160E070E0B3
:1004E0008CE190E00E94D20161E070E081E190E057
:1004F0000E94D20169C06FEF70E082E090E00E943C
:10050000D20168E070E084E090E00E94D20160E0F7
:1005100070E08CE190E00E94D20161E070E081E146
:1005200090E00E94D20150C060E870E082E090E06C
:100530000E94D20168E070E084E090E00E94D20165
:1005400060E870E08CE190E00E94D20161E070E030
:1005500081E190E00E94D20137C060E870E082E063
:1005600090E00E94D20168E070E084E090E00E9498
:10057000D20160EB70E08CE190E00E94D20161E07A
:1005800070E081E190E00E94D2011EC06FEF70E048
:1005900082E090E00E94D20168E270E084E090E0A6
:1005A0000E94D20160E070E08CE190E00E94D201F4
:1005B0006EEF70E081E190E00E94D20164E170E0B2
:1005C00085E490E00E94D201C2E3D0E00E940802DC
:1005D0002197E1F7DF91CF9108950E945E0780E0B7
:1005E00090E00E9425020E94E4050E94F2060E940B
:1005F000D1060E9473030E94710078940895CF93EE
:10060000DF9300D0CDB7DEB719821A820E94ED02C7
:100610002FEF83ED90E3215080409040E1F700C040
:10062000000080E010E004C00E94F80501C0812FA6
:1006300092E8980F9230C0F78E3721F40E9463043D
:10064000812FF6CF8F3799F7BE016F5F7F4FCE01B5
:1006500002960E947305812FEBCF0F931F93CF93C8
:10066000DF938C01EB010E94670780ED90E00E9410
:100670007C07C8010E949607CE010E94A3070E9432
:100680007207DF91CF911F910F910895CF93DF9360
:10069000EC010E94670780ED90E00E947C07CE018C
:1006A0000E9496070E9472070E94670781ED90E002
:1006B0000E9489070E94B007EC010E947207CE01D8
:1006C000DF91CF91089560E070E08BE690E00E94AA
:1006D0002D032FEF86E791E0215080409040E1F715
:1006E00000C00000089560E470E08BE690E00E9496
:1006F0002D0308950F931F93CF93DF93EC01162FD3
:100700000E944603082FCE0101960E94460360E036
:1007100070E0702F860F971F11110DC0BC01990F4B
:10072000880B990B0E94090920E030E043E053E474
:100730000E945F0812C0113069F4BC01990F880B48
:10074000990B0E94090920E030E040E05AE30E9442
:10075000ED0903C060E070E0CB01DF91CF911F9104
:100760000F9108954F925F926F927F928F929F9216
:10077000AF92BF92CF92DF92EF92FF925B0161E066
:100780000E947A036B017C0161E0C5010E947A033B
:100790004B015C019B01AC01C701B6010E945F08DF
:1007A0000E942B0820E030E044E353E40E94ED096E
:1007B00023EC35EF48E450E40E945F082B013C0134
:1007C00020E030E0A901C701B6010E94E0098823BA
:1007D000ECF020E030E0A901C501B4010E945A0804
:1007E0001816A4F020E030E044E353E4C301B20162
:1007F0000E94BF072B013C0120E030E0A901C701A6
:10080000B6010E945A081816ECF012C020E030E041
:10081000A901C701B6010E945A0818169CF020E0F1
:1008200030E0A901C501B4010E945A08181654F01D
:1008300020E030E044E353E4C301B2010E94BE076C
:100840002B013C01C301B2010E94D108CB01FF90F2
:10085000EF90DF90CF90BF90AF909F908F907F9060
:100860006F905F904F900895CF92DF92EF92FF923A
:100870000F931F93CF93DF936C017C01892B99F029
:1008800000E010E0C0E0D0E00E9463036DE370E0A0
:100890008BE390E00E94B203080F191F2196CE153A
:1008A000DF0591F702C000E010E0C801B6010E9428
:1008B0005E0ACB01DF91CF911F910F91FF90EF90D6
:1008C000DF90CF900895FF920F931F93CF93DF9304
:1008D000EAE0F1E011821082138212821582148202
:1008E0001782168211861086138612868DE70E9463
:1008F000F0050E94F8058E3709F440C010E0C0E012
:10090000D0E0FF24F39400E0803289F4113061F4E8
:10091000FE01EE0FFF1FE65FFE4F808191819195F2
:1009200081959109918380832196102F20C08D326B
:10093000E9F090ED980F9A30D0F4FE01EE0FFF1F12
:10094000E65FFE4F20813181A901440F551F220F20
:10095000331F220F331F220F331F240F351F90E048
:10096000C097820F931F9183808301C01F2D8DE755
:100970000E94F0050E94F8058E3731F6EAE0F1E0BA
:1009800080819181909307018093060182819381F8
:1009900090930501809304018481958190930301D4
:1009A00080930201868197819093010180930001D9
:1009B0008085918590931901809318018285938594
:1009C00090931701809316010E942502DF91CF9129
:1009D0001F910F91FF900895CF92DF92FF920F9396
:1009E0001F93CF93DF93F82E6B018A01FA01C08128
:1009F000D1810E9408020E94560680E20E94F00502
:100A0000A6016F2D80910601909107010E943A077F
:100A10008091060190910701C80FD91FF801D18379
:100A2000C083DF91CF911F910F91FF90DF90CF9006
:100A300008957F928F929F92AF92BF92CF92DF9252
:100A4000EF92FF920F931F93CF93DF9300D0CDB718
:100A5000DEB77C015B016A0149011A821982F90142
:100A600000811181FB017080892B69F09801AE0132
:100A70004F5F5F4FB601872D0E94EC0489819A81F8
:100A80008E159F0598F30E9408020E94560680E288
:100A90000E94F0058DE00E94F0058AE00E94F005BA
:100AA00080910201909103019801281B390BC90123
:100AB000F401318320830E9494010E94730381E03A
:100AC0007826F50170820F900F90DF91CF911F91E2
:100AD0000F91FF90EF90DF90CF90BF90AF909F90DD
:100AE0008F907F900895DF92EF92FF920F931F9364
:100AF000CF93DF9300D0CDB7DEB78C017B0180911F
:100B00001801909119019A838983F801D0800E947D
:100B1000940161E06D258091040190910501A70188
:100B2000969587950E943A07FFEF21EE84E0F150F9
:100B300020408040E1F700C0000029813A81809187
:100B400000019091010128173907A4F09E012F5F41
:100B50003F4FA701B80180910401909105010E94C7
:100B6000190529813A81809100019091010128178E
:100B7000390764F7F801D080809104019091050154
:100B8000A7016D2D969587950E943A0761E06D2526
:100B9000F80160838FE70E94F00580E090E00E94FA
:100BA0009401FFEF23ED80E3F15020408040E1F716
:100BB00000C000000F900F90DF91CF911F910F9117
:100BC000FF90EF90DF90089588E18093C10086E068
:100BD0008093C2001092C5008CE08093C4000895F9
:100BE000E0ECF0E0908195FFFDCF8093C600089582
:100BF000E0ECF0E080818823ECF78091C600089556
:100C0000FC01892BA9F140E050E0CA01880F991F2F
:100C1000440F551F440F551F440F551F480F591FB0
:100C20009F01ADECBCEC0E94780A9695879596954D
:100C30008795969587959C01220F331F880F991FE2
:100C4000880F991F880F991F820F931F9F01281BE0
:100C5000390B420F531F9F010E94780AFC01F69541
:100C6000E795F695E795F695E795309771F602C00A
:100C700040E050E0CA0108959C01892B99F040E0C2
:100C800050E04F5F5F4FADECBCEC0E94780A9C01D6
:100C90003695279536952795369527952115310553
:100CA00081F702C040E050E0CA010895EF92FF9240
:100CB0000F931F93CF93DF937C01992334F48DE23C
:100CC0000E94F005F194E194F108C7010E9400062A
:100CD000EC01C7010E943C068C01209769F19E013E
:100CE000ADECBCEC0E94780A969587959695879511
:100CF000969587959C01220F331F880F991F880FA7
:100D0000991F880F991F820F931F9E01281B390B73
:100D1000C901805D0E94F0059E01ADECBCEC0E9413
:100D2000780AEC01D695C795D695C795D695C795FF
:100D300001501109209799F60115110549F4EF2882
:100D400071F010C080E30E94F0052197D9F70AC026
:100D500080E30E94F005E8012197A1F703C080E33A
:100D60000E94F005DF91CF911F910F91FF90EF90BE
:100D700008959C01222730938B0080938A00089568
:100D8000E0E8F0E0808183628083E1E8F0E0808148
:100D9000806180838EE48093890080E28093880064
:100DA0000895229A0E94C0060895E1E8F0E080814B
:100DB000826080830895E1E8F0E08081887F80830D
:100DC00010928500109284000895CF93DF93EC0178
:100DD0000E94DB06CE010E94B9060E94D506DF9173
:100DE000CF9108958AB1806F8AB90895DB01EC91A3
:100DF000E2FB992790F9E1FB552750F9BE2FB1701E
:100E00004B2F452B31E0232F25273927F42FF923AA
:100E1000FF0FFF0FFF0F4323440F4F0FF52FF92351
:100E2000FB23A22FA323FA2B4F0F5B233523292368
:100E3000932F922B990F990F940F2BB12F702BB9E1
:100E40002BB19295907F922B9BB9813049F4E7307A
:100E500019F4FB0110820895EF5FDB01EC93089514
:100E6000E11104C087E0FB0180830895E150DB01BC
:100E7000EC930895CF92DF92FF920F931F93CF933D
:100E8000DF93009799F06A01F62E8C01C0E0D0E064
:100E9000B6018F2D0E94F6068FE39FE10197F1F7CF
:100EA00000C0000021960C171D0791F7DF91CF912C
:100EB0001F910F91FF90DF90CF9008958CE0809369
:100EC000B800ECEBF0E0808184608083089584EAD0
:100ED0008093BC00ECEBF0E080818823ECF78091FC
:100EE000B900089584E98093BC008FE99FE00197E1
:100EF000F1F700C0000008958093BB0084E8809360
:100F0000BC00ECEBF0E080818823ECF78091B90025
:100F100008958093BB0084E88093BC00ECEBF0E084
:100F200080818823ECF78091B90008958093BB00FD
:100F300084E88093BC00ECEBF0E080818823ECF740
:100F40008091B90008958093BB0084E88093BC0031
:100F5000ECEBF0E080818823ECF78091B9000895F4
:100F600084E88093BC00ECEBF0E080818823ECF710
:100F70008091B9008091BB0090E008955058BB2744
:100F8000AA270E94D6070C94A6090E94980938F057
:100F90000E949F0920F039F49F3F19F426F40C9425
:100FA0006E090EF4E095E7FB0C946809E92F0E94A6
:100FB000B70958F3BA17620773078407950720F03B
:100FC00079F4A6F50C94D9090EF4E0950B2EBA2FFE
:100FD000A02D0B01B90190010C01CA01A00111243F
:100FE000FF27591B99F0593F50F4503E68F11A16EB
:100FF000F040A22F232F342F4427585FF3CF46957C
:1010000037952795A795F0405395C9F77EF41F169D
:10101000BA0B620B730B840BBAF09150A1F0FF0F67
:10102000BB1F661F771F881FC2F70EC0BA0F621F53
:10103000731F841F48F4879577956795B795F79543
:101040009E3F08F0B0CF9395880F08F09927EE0FD8
:10105000979587950895DF93DD27B92FBF7740E8EF
:101060005FE31616170648075B0718F4D92F0E948E
:10107000E5099F938F937F936F930E945A0AE6E747
:10108000F0E00E9471090E94A6092F913F914F91B3
:101090005F910E94000ADD2351F09058A2EA2AEDE8
:1010A0003FE049EC5FE3D0785D270E94D607DF91EF
:1010B0000C94A6090E94440908F481E008950E9456
:1010C00073080C94A6090E949F0958F00E94980981
:1010D00040F029F45F3F29F00C94680951110C94F9
:1010E000DA090C946E090E94B70968F39923B1F3E9
:1010F000552391F3951B550BBB27AA27621773073E
:10110000840738F09F5F5F4F220F331F441FAA1FD1
:10111000A9F335D00E2E3AF0E0E832D0915050408D
:10112000E695001CCAF72BD0FE2F29D0660F771F3B
:10113000881FBB1F261737074807AB07B0E809F021
:10114000BB0B802DBF01FF2793585F4F3AF09E3FA6
:10115000510578F00C9468090C94DA095F3FE4F3C8
:10116000983ED4F3869577956795B795F7959F5FE9
:10117000C9F7880F911D9695879597F90895E1E035
:10118000660F771F881FBB1F621773078407BA0794
:1011900020F0621B730B840BBA0BEE1F88F7E095EF
:1011A00008950E94D8086894B1110C94DA09089542
:1011B0000E94BF0988F09F5798F0B92F9927B7511F
:1011C000B0F0E1F0660F771F881F991F1AF0BA95EB
:1011D000C9F714C0B13091F00E94D909B1E0089567
:1011E0000C94D909672F782F8827B85F39F0B93F59
:1011F000CCF3869577956795B395D9F73EF490959E
:101200008095709561957F4F8F4F9F4F0895E8941B
:1012100009C097FB3EF490958095709561957F4F3E
:101220008F4F9F4F9923A9F0F92F96E9BB279395EC
:10123000F695879577956795B795F111F8CFFAF4FC
:10124000BB0F11F460FF1BC06F5F7F4F8F4F9F4F2D
:1012500016C0882311F096E911C0772321F09EE88B
:10126000872F762F05C0662371F096E8862F70E0F1
:1012700060E02AF09A95660F771F881FDAF7880FCB
:101280009695879597F90895990F0008550FAA0B21
:10129000E0E8FEEF16161706E807F907C0F0121689
:1012A0001306E407F50798F0621B730B840B950B8C
:1012B00039F40A2661F0232B242B252B21F40895E1
:1012C0000A2609F4A140A6958FEF811D811D08957E
:1012D00097F99F6780E870E060E008959FEF80ECE9
:1012E0000895DF93CF931F930F93FF92EF92DF92B6
:1012F0007B018C01689406C0DA2EEF010E94000A7F
:10130000FE01E894A5912591359145915591A6F35B
:10131000EF010E94D607FE019701A801DA9469F750
:10132000DF90EF90FF900F911F91CF91DF91089583
:1013300000240A94161617061806090608950024B4
:101340000A9412161306140605060895092E03942E
:10135000000C11F4882352F0BB0F40F4BF2B11F4A2
:1013600060FF04C06F5F7F4F8F4F9F4F089557FD01
:101370009058440F551F59F05F3F71F04795880F03
:1013800097FB991F61F09F3F79F08795089512169A
:1013900013061406551FF2CF4695F1DF08C0161646
:1013A00017061806991FF1CF8695710561050894F7
:1013B0000895E894BB2766277727CB0197F908950E
:1013C0000E94440908F48FEF08959B01AC0160E08E
:1013D00070E080E89FE30C945F080E94000A0C9480
:1013E000A6090E94980938F00E949F0920F09523D1
:1013F00011F00C9468090C946E0911240C94DA090C
:101400000E94B70970F3959FC1F3950F50E0551FE7
:10141000629FF001729FBB27F00DB11D639FAA2749
:10142000F00DB11DAA1F649F6627B00DA11D661F98
:10143000829F2227B00DA11D621F739FB00DA11DB9
:10144000621F839FA00D611D221F749F3327A00D73
:10145000611D231F849F600D211D822F762F6A2F0F
:1014600011249F5750409AF0F1F088234AF0EE0F74
:10147000FF1FBB1F661F771F881F91505040A9F7A1
:101480009E3F510580F00C9468090C94DA095F3F87
:10149000E4F3983ED4F3869577956795B795F795DD
:1014A000E7959F5FC1F7FE2B880F911D9695879555
:1014B00097F908959B01AC010C94ED0997FB072E59
:1014C00016F4009407D077FD09D00E94870A07FC24
:1014D00005D03EF4909581959F4F08957095619544
:1014E0007F4F0895EE0FFF1F0590F491E02D0994B2
:1014F000A29FB001B39FC001A39F700D811D112455
:10150000911DB29F700D811D1124911D0895AA1B7C
:10151000BB1B51E107C0AA1FBB1FA617B70710F0DE
:10152000A61BB70B881F991F5A95A9F78095909510
:0A153000BC01CD010895F894FFCF2F
:08153A00A6FF010000011000F2
:00000001FF
